:020000040800F2
:10000000281600201D020008A9140008E9130008A2
:10001000A51400086D070008E72000080000000094
:10002000000000000000000000000000D5160008DD
:100030003F0A0008000000005D150008E9170008ED
:1000400037020008370200083702000837020008AC
:10005000370200083702000837020008370200089C
:10006000370200083702000837020008370200088C
:10007000370200083702000837020008370200087C
:10008000370200087107000837020008370200082D
:10009000370200083702000837020008370200085C
:1000A000370200083702000837020008370200084C
:1000B0004D1800086D1800083702000837020008C4
:1000C000370200083702000837020008370200082C
:1000D00037020008F11D000837020008791E0008E9
:1000E000590A0008370200083702000837020008E2
:1000F00037020008370200083702000837020008FC
:1001000037020008370200083702000837020008EB
:1001100037020008370200083702000837020008DB
:1001200037020008370200083702000837020008CB
:1001300000F002F800F063F80AA090E8000C824496
:100140008344AAF10107DA4501D100F058F8AFF273
:10015000090EBAE80F0013F0010F18BFFB1A43F0A5
:10016000010318476C3700008C37000010F8013B82
:100170000A4413F0030408BF10F8014B1D1108BF17
:1001800010F8015B641E05D010F8016B641E01F8C5
:10019000016BF9D1002D15D010F8014B03F00C03C1
:1001A0000C2BA1EB04040ABF10F8013BA4EB831451
:1001B000A4EB032405F1010314F8016B5B1E01F8A5
:1001C000016BF9D5914238BF10F8013BD1D370478C
:1001D0000023002400250026103A28BF78C1FBD850
:1001E000520728BF30C148BF0B607047642900F038
:1001F0004380002070471FB51FBD10B510BD00F033
:100200002DFA1146FFF7F7FF02F08CFA00F04BFAD7
:1002100003B4FFF7F2FF03BC01F0DDFF094880479C
:1002200009480047FEE7FEE7FEE7FEE7FEE7FEE7D8
:10023000FEE7FEE7FEE7FEE704480549054A064BF0
:1002400070470000ED170008310100082810002059
:1002500028160020281200202812002070470000D5
:100260000FB4044910B503AA029800F041F910BC7C
:100270005DF814FB2C0700202DE9F0410646002410
:1002800010687529314616A510D0AFF300800028FC
:1002900002DA404213A507E031688A0701D512A5AA
:1002A00002E0490704D511A5012401E0AFF3008065
:1002B00000210A2206F1240709E0B0FBF2FCB0FBA2
:1002C000F2F302FB1C00303078541846491C002819
:1002D000F3D123462A463046BDE8F04100F0AEB8DF
:1002E000000000002D0000002B0000002000000096
:1002F0002DE9F05F894604464FF0000ADFF824B18B
:10030000FB44C0F820A02046E168884700287DD043
:10031000252806D0D4E901219047206A401C20629C
:10032000F1E700255F462046E16888472028064619
:1003300007DB312E05D2B81910F8200C08B105439F
:10034000F1E7A80701D525F00405C4F81CA0002793
:10035000C4F818A02A2E09D0304601F035FF38B372
:1003600004EB8708303EC8F8186019E059F8041B00
:10037000204604EB87029161E1688847012F064619
:1003800018D1E069002820DA25F020051DE0D8F812
:10039000180000EB800006EB40003038C8F8180069
:1003A0002046E1688847064601F00EFF0028EED19E
:1003B000012F0AD02E2E08D12046E16888477F1CE5
:1003C0000646022F45F02005C4DBA069002803DAA9
:1003D000404245F00105A061E80701D025F0100575
:1003E000A6B1A6F14100192802D8203645F40065CF
:1003F0004A463146204625604D46FFF7F7FE60B17C
:10040000012807D0ED1D25F0070000E007E000F10E
:10041000080978E705F1040975E730467AE7206AAC
:10042000BDE8F09FAE350000014900F073B8000050
:10043000980F002070477047704770472DE9F047CC
:100440000D4699469246044600F124080168880644
:1004500004D5E06921F01001216000E00120A842EC
:1004600001DD471B00E00027A1697A1902EB0900B2
:10047000081AA0612078C00602D42046AFF300809D
:10048000002608E0D4E901211AF806009047206A06
:10049000401C761C20624E45F4DB2078C0060AD54D
:1004A0002046AFF3008006E0D4E9012130209047D8
:1004B000206A401C2062381EA7F10107F4DC07E027
:1004C000D4E9012118F805009047206A401C2062F9
:1004D000281EA5F10105F3DC2046AFF3008020784B
:1004E000000602D50220BDE8F0870120FBE70000EE
:1004F000074B70B50D467B4400F06DF80446284666
:1005000000F07CF810B14FF0FF3070BD204670BD98
:100510009721000070B50C46016800204A1C3ED0AF
:100520003C22B1FBF2F302FB1313B1FBF2F12360A7
:10053000B1FBF2F302FB1313B1FBF2F1182263607B
:10054000B1FBF2F302FB1313B1FBF2F146F2E0321E
:100550000A440721A360B2FBF1F301FB132140F22F
:10056000B553B2FBF3F5A161B2FBF3F103FB152226
:100570008900B2F5B77F08D39B10521EB2FBF3F58A
:100580002944B2FBF3F503FB15220F4BE2616161D5
:1005900089077B440CD03B2A0AD3521C08E02C214B
:1005A000204600F02FF80120E0600AE0521A401CBB
:1005B000195C9142FAD9521CC4E903204FF0FF3074
:1005C0002062204670BD00002D33000001694A1CE6
:1005D00002610878704700B58FB0CDE90131002184
:1005E000059105497944CDE9031011466846FFF7A6
:1005F0007FFE0FB000BD0000E5FFFFFF007B00F0B5
:10060000800070474FF0000200B5134694469646AE
:10061000203922BFA0E80C50A0E80C50B1F1200115
:10062000BFF4F7AF090728BFA0E80C5048BF0CC0C3
:100630005DF804EB890028BF40F8042B08BF704721
:1006400048BF20F8022B11F0804F18BF00F8012B93
:100650007047000000487047C40F00207546FFF740
:10066000F9FFAE4605006946534620F0070085466F
:1006700018B020B5FFF7E0FDBDE820404FF00006C0
:100680004FF000074FF000084FF0000B21F007017A
:10069000AC46ACE8C009ACE8C009ACE8C009ACE8BD
:1006A000C0098D46704710B50446AFF30080204660
:1006B000BDE81040FFF7ACBD00B589B001210220B4
:1006C00000F05EFF0121082000F07AFF18208DF86D
:1006D00023000120ADF8200003208DF8220008A996
:1006E000204800F0BFFA204801F03EF940F2777050
:1006F000ADF808004720ADF804000020ADF80A006E
:10070000ADF8060001A9184801F094FA6020ADF890
:1007100010000120ADF812000020ADF81600ADF871
:10072000180004A9104801F033FA01210E4801F025
:10073000EBF8012211460C4801F01BFA1D208DF840
:10074000000001208DF803008DF801008DF80200F3
:10075000684600F0ABFE0121034801F0E7F809B05C
:1007600000BD0000000C01400004004000BFFEE797
:1007700010B54FF0007000F023F930B10348006865
:1007800080474FF0007000F05BF810BD3C07002080
:1007900010B58CB004460121084600F0E1FE1A486D
:1007A00000F068F81948019002941020039000208E
:1007B00004900590802006904000079080000890EB
:1007C000002009904FF480500A9000200B9001A95E
:1007D0000D4800F014F911208DF8000001208DF86B
:1007E00001008DF802008DF80300684600F05EFEFF
:1007F00001220221044800F0F9F80121024800F02A
:100800002DF80CB010BD0000800002403C080040F4
:1008100001490860704700003C07002010B50446FD
:100820000021064800F01AF82146044800F005F9B6
:100830000121024800F012F810BD000080000240C3
:1008400000F0805111B10349086001E0024948609D
:1008500070470000040402400000024021B1026819
:1008600042F00102026004E002684FF6FE731A4093
:100870000260704701684FF6FE721140016000216E
:10088000016041608160C1604B49884208D14A499A
:100890000839496841F00F01474A083A51608AE037
:1008A00045491431884208D143490839496841F023
:1008B000F001414A083A51607DE03F4928318842C1
:1008C00008D13D490839496841F470613A4A083A0B
:1008D000516070E038493C31884208D136490839C6
:1008E000496841F47041344A083A516063E0324942
:1008F0005031884208D130490839496841F47021A3
:100900002D4A083A516056E02B496431884208D19B
:1009100029490839496841F47001274A083A516069
:1009200049E025497831884208D123490839496886
:1009300041F07061204A083A51603CE01F4988420A
:1009400006D1011F096841F00F01021F116032E05A
:100950001A491431884208D11849091F096841F021
:10096000F001164A121F116025E01449283188420F
:1009700008D11249091F096841F470610F4A121F1A
:10098000116018E00D493C31884208D10B49091F1C
:10099000096841F47041094A121F11600BE00749D0
:1009A0005031884207D10549091F096841F4702177
:1009B000024A121F116070470800024008040240FA
:1009C00001460020002201F0805313B1054B1A6844
:1009D00001E0054B1A6802EA01030BB1012000E0B7
:1009E0000020704700040240000002401AB1036872
:1009F0000B43036002E003688B430360704710B54C
:100A00000022026847F6F0739A430C6A8B6823430E
:100A10000C6923434C6923438C692343CC692343EA
:100A20004C6A23438C6A23431A430260CB684360B9
:100A30000B6883604B68C36010BD416070477047AE
:100A4000002105E0002200E0521CFA2AFCD3491CD8
:100A50008142F7D37047000010B54FF4806000F07A
:100A600083F801286AD1C102354800F086F90446AE
:100A700034480078E8B93448008844EA40003249F4
:100A8000088032480078401C3049087008460078D9
:100A900010284FD12C4800884FF6FE71884202D1B1
:100AA000012028490870002028490870264908803C
:100AB00040E024480078012815D12548006844EA20
:100AC00040002349086021480078401C1F490870F5
:100AD0000846007820282DD102201A4908700020ED
:100AE0001A49087026E017480078022822D11948D0
:100AF000008844EA40001749088014480078401CE8
:100B00001249087008460078102813D1114800884F
:100B10004FF6FF61884203D101200F49087002E0BF
:100B200000200B4908600020084908700949088026
:100B3000044908704FF4806000F010F810BD000008
:100B4000000C01402207002024070020230700207A
:100B5000140700202607002018070020014908601C
:100B60007047000014040140014600200022074B9A
:100B70001B6803EA0102054B14331B680B4013B1D9
:100B80000AB1012000E0002070470000000401408D
:100B9000002123498279002A3AD00A461268036864
:100BA0009A430B461A600A1D126803689A430B1D8C
:100BB0001A60027911440A6803681A430A60184AE5
:100BC0000832126803689A43154B08331A601A1DDD
:100BD000126803689A43124B0C331A604279102A48
:100BE0000ED11A1F126803681A430D4B08331A609E
:100BF0001A1D126803681A43094B0C331A600DE082
:100C00000749427911440A6803681A430A6005E0FB
:100C1000027911440A6803689A430A607047000029
:100C20000004014030B500228B071C0F0F2303FA8C
:100C300004F20B4B8C1053F824309343084C8D1066
:100C400044F8253023468C1053F824308C07240FA9
:100C500000FA04F42343024C8D1044F8253030BDD3
:100C6000080001402DE9F041024600250026002041
:100C700000230024002791F803C00CF00F0591F821
:100C800003C00CF0100CBCF1000F03D091F802C0AF
:100C90004CEA050591F800C0BCF1000F31D0146892
:100CA00000202BE04FF0010C0CFA00F3B1F800C06B
:100CB0000CEA03069E4220D183004FF00F0C0CFA81
:100CC00003F7BC4305FA03FC4CEA040491F803C0A3
:100CD000BCF1280F06D14FF0010C0CFA00FCC2F851
:100CE00014C00AE091F803C0BCF1480F05D14FF0E1
:100CF000010C0CFA00FCC2F810C0401C0828D1D32B
:100D00001460B1F800C0BCF1FF0F34DD546800205E
:100D10002EE000F1080C4FF0010808FA0CF3B1F8CE
:100D200000C00CEA03069E4221D183004FF00F0C55
:100D30000CFA03F7BC4305FA03FC4CEA040491F8EF
:100D400003C0BCF1280F05D100F1080C08FA0CF81B
:100D5000C2F8148091F803C0BCF1480F07D100F12C
:100D6000080C4FF0010808FA0CF8C2F81080401C7B
:100D70000828CED35460BDE8F08102460020936875
:100D80000B400BB1012000E000207047024600201C
:100D9000D3680B400BB1012000E000207047416197
:100DA0007047016170470AB1016100E0416170471D
:100DB0002DE9F04F8BB005460E464FF0010B00F0C9
:100DC0005FF9882000F02EF900F0A2F928B100F0B8
:100DD0007BF901200BB0BDE8F08F242000F022F950
:100DE00000F096F90B2000F01DF900F091F918B110
:100DF00000F06AF90120EDE700F066F9012001F04A
:100E00002FFA00BF00F03CF9892000F00BF900F048
:100E10007FF928B100F058F9022001F021FA01E031
:100E20004FF0000BBBF1000FECD100240EE0052CBD
:100E300005DA012000F0C0F808A9085504E00020F8
:100E400000F0BAF808A90855601CC4B2062CEEDB05
:100E500000F03AF99DF821009DF8201040EA0129A0
:100E60009DF824009DF8231040EA012A484602F02C
:100E70008DFC019002F052FC0022154BCDE90201DD
:100E800002F064FA0022134BCDE9040102F0C6F827
:100E90000022114BCDE9060102F018F8074601F0D7
:100EA000E3FF2860504602F03EFA00220B4BCDE9EA
:100EB000040102F04BFA0022064BCDE9060102F0D4
:100EC000ADF8074601F0D0FF3060002082E7000057
:100ED00000E06540E0FFEF40008046C00000594060
:100EE00010B500200E4908600E48006820F07040E0
:100EF0000C4908600846006840F040500860002037
:100F00000949C1F89C0100F011F80120044908606A
:100F100000F00CF800200449C1F8980110BD000051
:100F200098812142000C01400080214210B502202E
:100F300001F0BCF910BD000008B50121082000F047
:100F40003FFBC020ADF8000010208DF80300032007
:100F50008DF8020069460448FFF784FEC02102486C
:100F6000FFF71FFF08BD0000000C014010B5002076
:100F70000E4908600E48006820F070400C49086077
:100F80000846006840F04050086001200949C1F857
:100F90009C01FFF7CBFF012004490860FFF7C6FF63
:100FA00000200449C1F8980110BD00009881214239
:100FB000000C01400080214270B50546002416480F
:100FC000006820F07040144908600846006840F04E
:100FD00000400860002614E0002010490860FFF778
:100FE000A5FF01200E49C1F898016006040E0B48C8
:100FF0007C38006808B1601CC4B2FFF797FF701C12
:10100000C6B2082EE8DB15B9FFF7B0FF01E0FFF725
:1010100067FF204670BD0000000C0140988121420E
:101020000080214270B504461248006820F07040EC
:10103000104908600846006840F0405008600020F1
:101040000D490860002512E0E0090B49091D086000
:101050006006040E01200949C1F89801FFF766FFF8
:10106000002005490860FFF761FF681CC5B2082D24
:10107000EADB70BD000C01409881214200802142D2
:1010800010B50E48006820F070400C490860084612
:10109000006840F040500860012009490860094993
:1010A000C1F89801FFF742FF002005490860FFF7EB
:1010B0003DFF00200349C1F8980110BD000C01401C
:1010C0009C8121420080214210B50E48006820F02A
:1010D00070400C4908600846006840F040500860C5
:1010E0000020094908600949C1F89C01FFF71EFF6B
:1010F0000120054908600549C1F89C01FFF716FF6A
:1011000010BD0000000C0140988121420080214266
:1011100010B500241448006820F07040124908609F
:101120000846006840F00040086001200F49086050
:10113000FFF7FCFE01200E49C1F89801FFF7F6FE0B
:1011400007E0601CC4B2FA2C03DDFFF7BDFF0120ED
:1011500010BD0648803800680028F2D10349091FF5
:10116000086000BFF4E70000000C01409C812142B0
:101170000080214210B5FFF7DFFE322001F070F849
:10118000002010BD2DE9F84F044688464FF0000AB4
:10119000002794F80290E078A07084F80390E0783B
:1011A0000090A3786278217822A0FFF759F80025F3
:1011B00030E0605D0C2800D12AE0605D012805DB8D
:1011C000605D092802DC14F805900CE0605D10B940
:1011D0004FF00A0907E0605D0A2802D14FF00009CC
:1011E00001E04FF00B0905EB450009EB8000C0F171
:1011F0003F00C6B2202E04DA0120B04040EA0A0ABD
:1012000005E0A6F12000012101FA00F0074300BF2C
:10121000681CC5B2042DCCDBB8F1000F01D047F437
:1012200080775146384600F075F800F045F8BDE883
:10123000F88F000064617461203A20256420202525
:101240006420202564202025640D0A0030B5002488
:1012500000252146284600F05DF800F02DF830BD4D
:1012600038B504460121042000F0AAF9FE20ADF8AB
:10127000000014208DF8030003208DF80200694659
:101280000A48FFF7EFFC0020094908600949C1F846
:101290009C01074914310860091F0860091F086094
:1012A0000349091D0860091D086038BD0008014098
:1012B000840121420000214200B501200649086056
:1012C0003220FFF7BDFB00200449C1F88C01142037
:1012D000FFF7B6FB00BD00008C0121420000214257
:1012E00038B50024002500BF10E0002503E00DF80C
:1012F0000540681CC5B2042DF9DB00216846FFF7E4
:1013000041FFC82000F0ACFF601CC4B20C2CECDB29
:1013100038BD0000F0B506460F463C46002529E0E2
:1013200000202F49086004F001002E49C1F8900107
:10133000640804F001002A490C310860640804F0D4
:1013400001002849C1F89801640804F0010024490B
:101350001431086064081420FFF772FB0120214952
:10136000C1F888011420FFF76BFB00201C490860BE
:10137000681CC5B2082DD3DB344600252CE00020C4
:101380001749086004F001001649C1F8900164088B
:1013900004F0010012490C310860640804F00100F7
:1013A0001049C1F89801640804F001000C49143197
:1013B000086064081420FFF743FB01200949C1F8C5
:1013C00088011420FFF73CFB002005490860142029
:1013D000FFF736FB681CC5B2082DD0DBF0BD00005E
:1013E000880121420000214200BFFEE710B54FF402
:1013F00000611F48FFF7C1FCB8B9142000F030FFAE
:1014000000BF4FF400611A48FFF7B7FC0028F8D07E
:10141000142000F025FF17480078401E1549087079
:101420000846007808B9052008704FF4805110482C
:10143000FFF7A3FCC0B9142000F012FF00BF4FF467
:1014400080510B48FFF799FC0028F8D0142000F0D9
:1014500007FF08480078401C0649087008460078D5
:10146000062801D1012008700248007810BD000054
:10147000000801401207002008B50121042000F0F7
:101480009FF848208DF803004FF4C050ADF80000DD
:1014900003208DF8020069460148FFF7E3FB08BD11
:1014A0000008014000BFFEE77047000070B5002152
:1014B00000230F22C47804B3154C246804F4E064BC
:1014C000C4F5E064210AC1F10403CA40447804FA77
:1014D00003F184781440214309010E4C0678A1558C
:1014E000047804F01F050124AC4005786D11AD00AF
:1014F00005F1E025C5F8004109E0047804F01F0576
:101500000124AC40044D0678761145F8264070BDA4
:101510000CED00E000E400E080E100E0024901435E
:10152000024A1160704700000000FA050CED00E06F
:1015300008B50121082000F043F80220ADF80000B2
:1015400003208DF8020010208DF803006946024840
:10155000FFF788FB08BD0000000C01407047000049
:1015600029B1064A52690243044B5A6104E0034A16
:1015700052698243014B5A617047000000100240DB
:1015800029B1064AD2690243044BDA6104E0034AF6
:10159000D2698243014BDA617047000000100240BB
:1015A00029B1064A12690243044B1A6104E0034A56
:1015B00012698243014B1A6170470000001002401B
:1015C00029B1064A92690243044B9A6104E0034A36
:1015D00092698243014B9A617047000000100240FB
:1015E00029B1064AD2680243044BDA6004E0034A98
:1015F000D2688243014BDA6070470000001002405D
:1016000030B500210022002400232D4D6D6805F027
:101610000C0121B1042905D0082923D105E0294D69
:10162000056022E0274D05601FE0254D6D6805F43B
:101630007012234D6D6805F48034022505EB92424B
:101640001CB9214D554305600BE01D4D6D6805F437
:1016500000351DB11C4D5543056002E0194D554341
:10166000056002E0174D056000BF00BF144D6D68B6
:1016700005F0F0010909154D6B5C0568DD4045601A
:101680000F4D6D6805F4E061090A104D6B5C45680B
:10169000DD4085600A4D6D6805F46051C90A0B4D47
:1016A0006B5C4568DD40C560054D6D6805F44041E3
:1016B000890B074D6B5CC568B5FBF3F5056130BD63
:1016C0000010024000127A0000093D00410700208E
:1016D00051070020704710B500F002F810BD00005F
:1016E0000CB50020019000903348006840F4803031
:1016F0003149086000BF3048006800F400300090B5
:101700000198401C0190009818B90198B0F5A06F9D
:10171000F1D12948006800F4003010B10120009098
:1017200001E0002000900098012843D12348006880
:1017300040F01000214908600846006820F00300CE
:1017400008600846006840F0020008601A484068D7
:10175000194948600846406848600846406840F4B7
:10176000806048600846406820F47C104860084665
:10177000406840F4E81048600846006840F0807017
:10178000086000BF0C48006800F000700028F9D025
:101790000948406820F0030007494860084640684F
:1017A00040F00200486000BF0348406800F00C00B1
:1017B0000828F9D10CBD00000010024000200240B2
:1017C000042808D14FF0E021096941F004014FF0ED
:1017D000E022116107E04FF0E021096921F00401E6
:1017E0004FF0E022116170477047000010B51348B8
:1017F000006840F00100114908600846406810493F
:1018000008400E494860084600680E4908400B49E8
:1018100008600846006820F4802008600846406898
:1018200020F4FE0048604FF41F008860FFF753FF6C
:101830004FF000600449086010BD00000010024035
:101840000000FFF8FFFFF6FE08ED00E010B50121F3
:10185000880700F07DF9012805D1034908700121AE
:10186000800700F054F810BD4007002010B501219A
:101870001E4800F06DF9012837D11D480088401C32
:101880001B490880084600881A490988884228DBD5
:10189000002017490880184800680078FF280BD1FD
:1018A0000021124800F0C4F90021104800F032F87D
:1018B00002201249087014E0114A12681168104A97
:1018C0001268121D0E4C22600B4A126813780A4AE5
:1018D0001268521C084C22600A4A32F8130001F0C8
:1018E000FBF90121014800F012F810BD000400408E
:1018F0001007002044000020480000205000002075
:101900004C00002052000020CA4302827047CA43A4
:101910000282704721B1028842F00102028004E095
:1019200002884FF6FE731A400280704731B1B0F85A
:10193000442042F40042A0F8442005E0B0F84420DE
:10194000C2F30E02A0F8442070471AB183890B43FA
:10195000838102E083898B438381704741EA0203DC
:10196000A0F848307047000010B50446684884422B
:1019700008D10121C014FFF733FE0021E014FFF766
:101980002FFEC4E0B4F1804F08D101210846FFF7D3
:1019900007FE00210120FFF703FEB8E05D48844206
:1019A00008D101210220FFF7FBFD00210220FFF7F3
:1019B000F7FDACE05848844208D101210420FFF72C
:1019C000EFFD00210420FFF7EBFDA0E05348844227
:1019D00008D101210820FFF7E3FD00210820FFF7CF
:1019E000DFFD94E04E48844208D101211020FFF72A
:1019F000D7FD00211020FFF7D3FD88E0494884423D
:101A000008D101212020FFF7CBFD00212020FFF786
:101A1000C7FD7CE04448844208D101214014FFF70F
:101A2000DFFD00216014FFF7DBFD70E03F488442DA
:101A300009D10121C804FFF7D3FD00214FF4002094
:101A4000FFF7CEFD63E03A48844209D10121080541
:101A5000FFF7C6FD00214FF48010FFF7C1FD56E0EF
:101A60003448844209D101214805FFF7B9FD00211E
:101A70004FF40010FFF7B4FD49E02F48844208D12D
:101A800001214020FFF78CFD00214020FFF788FD59
:101A90003DE02A48844208D101218020FFF780FDE3
:101AA00000218020FFF77CFD31E02548844208D1E9
:101AB00001218015FFF774FD0021A015FFF770FDCF
:101AC00025E02048844209D101210804FFF788FD60
:101AD00000214FF48030FFF783FD18E01A4884425C
:101AE00009D101214804FFF77BFD00214FF40030AC
:101AF000FFF776FD0BE01548844208D101218804E8
:101B0000FFF76EFD00214FF48020FFF769FD10BD47
:101B1000002C01400004004000080040000C004080
:101B2000001000400014004000340140004C01400F
:101B3000005001400054014000180040001C0040CB
:101B400000200040004001400044014000480140A6
:101B500030B50246002000230024158A05EA01035F
:101B6000958905EA010413B10CB1012000E00020C1
:101B700030BD1AB183890B43838102E083898B4393
:101B80008381704701894FF6F872114001817047D7
:101B900070B5002400220023058C4FF6FF66354007
:101BA0000584028C8388848B4FF68F752C404FF60A
:101BB000FC752C400D882C434FF6FF552A400D89AB
:101BC0004FF6FF7606EA05252A434D8806EA0525E5
:101BD0002A43154DA84202D0144DA8421DD14FF200
:101BE000FF752A404D894FF6FF7606EA05252A4300
:101BF0004FF6FF352A408D8806EA05252A434EF622
:101C0000FF752B404DF6FF752B408D8906EA0515B3
:101C10002B43CD8906EA05152B4383808483CD8829
:101C20008587028470BD0000002C01400034014013
:101C300081877047002202881D4B98420ED01D4BB1
:101C400098420BD0B0F1804F08D01B4B984205D082
:101C50001A4B984202D01A4B984204D14FF68F7318
:101C60001A404B881A43174B984207D0164B98429C
:101C700004D04FF6FF431A40CB881A4302808B886A
:101C800083850B8803850A4B98420BD0094B9842F9
:101C900008D00E4B984205D00D4B984202D00D4B08
:101CA000984201D10B7A038601238382704700009A
:101CB000002C0140003401400004004000080040B6
:101CC000000C0040001000400014004000400140A3
:101CD00000440140004801401FB501210846FFF7BC
:101CE0004FFC4FF08040FFF74DFF0020ADF806009D
:101CF000ADF8020042F20F70ADF8040041F61F404B
:101D0000ADF8000000208DF8080069464FF08040D3
:101D1000FFF790FF01218807FFF7F6FD012211462A
:101D20009007FFF726FF1C208DF80C0001208DF88E
:101D30000F0002208DF80D0004208DF80E0003A87E
:101D4000FFF7B4FB01218807FFF7E4FD1FBD00008A
:101D500000B589B001210420FFF712FC0121082001
:101D6000FFF72EFC18208DF823004FF48070ADF89B
:101D7000200003208DF8220008A91B48FEF772FFFF
:101D80001A48FFF7F1FD5920ADF808000020ADF822
:101D90000400ADF80A00ADF8060001A91348FFF7EA
:101DA00049FF6020ADF810000120ADF812000020BE
:101DB000ADF81600ADF8180004A90C48FFF7E8FECE
:101DC00001210A48FFF7B2FD00220F210748FFF763
:101DD000C5FD012211020548FFF7B7FD00210348A8
:101DE000FFF798FD09B000BD000C0140000800405D
:101DF00010B540F225511D4800F0B5F810B31B484E
:101E000000F06CF9C4B21A48008800F40040C8B968
:101E10001748008800F4804060B10A2C03D00020ED
:101E20001349088020E01248008840F4004010491F
:101E3000088019E00D2C06D10D48008840F4804040
:101E40000B49088010E00A480088C0F30D000949DA
:101E50000C5407480088401C054908800846008843
:101E6000C72801DD0020088010BD000000380140B7
:101E7000300700202A08002010B540F225512548DF
:101E800000F071F8002844D0224800F027F9C4B2CD
:101E90002148007860B921480078FE2832D1FF2C13
:101EA00030D101201C49087000201D49088029E01C
:101EB0001948007801280DD1FF2C07D0184908884F
:101EC000411C174A118017490C541BE0022012498B
:101ED000087017E010480078022813D10F480078E6
:101EE000FF280FD1FE2C0DD100220D490888411C7E
:101EF0000B4B19800B490A54002007490870012038
:101F0000094908700548047040F22551074800F05F
:101F10000FF810BD004800403807002039070020A6
:101F200032070020F208002034070020003801406A
:101F300010B50022002340F66A14A14200D100BF70
:101F40000A1201249440A3B2DC43048010BD21B1E5
:101F5000828942F40052828104E082894DF6FF7347
:101F60001A408281704770B5024600240023002584
:101F7000002040F66A16B14200D100BFC1F34215FD
:101F800001F01F03012606FA03F3012D02D1968901
:101F9000334006E0022D02D1168A334001E0968AD2
:101FA00033400C12012606FA04F41688344013B1AB
:101FB0000CB1012000E0002070BDF0B50346002404
:101FC00000260025002040F66A17B94200D100BF64
:101FD0001846C1F3421401F01F06012707FA06F55F
:101FE000012C01D10C3004E0022C01D1103000E0B2
:101FF00014301AB107682F43076002E00768AF4347
:102000000760F0BD2DE9F04786B005460E46002476
:10201000A24600BFA1460027B08900B100BF2F46ED
:102020002C8A4CF6FF700440F08804432C82AC8963
:102030004EF6F3100440B088318908437189084393
:102040000443AC81AC8A4FF6FF400440B08904439E
:10205000AC8201A8FFF7D4FA1F48874202D1DDF80D
:1020600010A001E0DDF80CA0A88900F4004040B108
:102070000AEBCA0000EB0A1031684900B0FBF1F826
:1020800007E00AEBCA0000EB0A1031688900B0FBD8
:10209000F1F86420B8FBF0F004012009642101FB91
:1020A0001089A88900F4004040B1322000EBC9003B
:1020B000B0FBF1F000F00700044308E0322000EB31
:1020C00009106421B0FBF1F000F00F0004432C81F3
:1020D00006B0BDE8F087000000380140014688885E
:1020E000C0F30800704700BFFEE7000010B50021F4
:1020F0000548FFF79DFD00210348FFF70BFC012079
:102100000249087010BD0000000800402C000020AB
:1021100010B50448FEF77CFB0348FEF739FBFFF7D8
:1021200017FE10BDED2000086807002001460020C2
:1021300004E0044A42F82010421CD0B20428F8DB24
:10214000704700005807002070B5002422E00025E9
:102150001CE0194850F824004FF4000129410840C0
:1021600048B13C2104EB440005EBC000401C134A7D
:1021700022F8101008E01E2104EB440005EBC0001B
:10218000401C0E4A22F81010681CC5B2182DE0DB66
:10219000601CC4B2042CDADB6120FEF73FFB012196
:1021A0000748FFF7B7FB00BF064800780028FBD0C0
:1021B00000200449087070BD5807002068070020FF
:1021C000000800402C00002030380A2801D20120ED
:1021D00070470020704700BF7047000013B5684685
:1021E000FEF722F90446207B0B49C870207A08715B
:1021F00020794871207C401C88702078401C8871B0
:10220000A06908B1A06900E007200349C871A08A4D
:1022100000F26C7008801CBD1A07002010B56FF02A
:102220000400FFF7CDFA0A4800680A49B0FBF1F054
:10223000094908700846007800EB4001C1EBC01066
:102240004FF6FF7101EAC0000449088010BD00008C
:102250001800002000127A00280700202A0700201A
:102260000146114A12884A434FF0E0235A61002286
:102270009A611A46126942F001021A6100BF4FF0DA
:10228000E022106900F001021AB100F48032002A45
:10229000F5D04FF0E022126922F001024FF0E02366
:1022A0001A6100229A6170472A0700200146114AEC
:1022B00012784A434FF0E0235A6100229A611A468D
:1022C000126942F001021A6100BF4FF0E02210696A
:1022D00000F001021AB100F48032002AF5D04FF06C
:1022E000E022126922F001024FF0E0231A6100227D
:1022F0009A6170472807002008B501210820FFF7E0
:102300005FF94FF4E040ADF8000003208DF80200C3
:1023100010208DF8030069460448FEF7A3FC002056
:10232000034908600349C1F8B00108BD000C014031
:10233000B88121420080214210B500218E2000F09A
:1023400051F980218E2000F04DF910BD10B500F03C
:10235000ADF82A48007800F00F00284909780911E3
:1023600001EB810100EB4100254988712348407849
:1023700000F00F0021494978C1F3021101EB8101FE
:1023800000EB41001E4948711C48807800F00F00A6
:102390001A498978091101EB810100EB41001849C4
:1023A00008711648C07800F00F001449C978091167
:1023B00001EB810100EB41001149C8700F48007921
:1023C00000F00F000D490979091101EB810100EBC3
:1023D00041000B49887009484079C87107488079E5
:1023E00000F00F0005498979091101EB810100EB2B
:1023F000410000F5FA600249088010BD3600002057
:102400002E0000202DE9F04105462F46002600242D
:102410000020234908602349C1F8B0010320FFF7D9
:1024200045FF01201E4908600320FFF73FFF3846A3
:1024300000F002F91C48006820F470001A49086096
:102440000846006840F4000008600220FFF72EFFF5
:1024500000BF19E00220FFF729FF64100120104996
:10246000083908600420FFF721FF00200D49C1F85A
:10247000B0010E20FFF71AFF09488438006808B140
:1024800044F08004701CC6B2082EE3DB0220FFF784
:102490000DFF0020024908602046BDE8F0810000E1
:1024A000B881214200802142040C014010B58120F6
:1024B000FFF7A8FF104908708320FFF7A3FF0E491C
:1024C00048708520FFF79EFF0B4988708720FFF733
:1024D00099FF0949C8708920FFF794FF06490871E0
:1024E0008B20FFF78FFF044948718D20FFF78AFF8B
:1024F0000149887110BD00003600002070B5044607
:1025000000218E2000F06EF8A0790A2190FBF1F2F4
:1025100001FB12010A2290FBF2F001EB0010C5B2A0
:102520002946802000F05EF860790A2190FBF1F2E4
:1025300001FB12010A2290FBF2F001EB0010C5B280
:102540002946822000F04EF820790A2190FBF1F212
:1025500001FB12010A2290FBF2F001EB0010C5B260
:102560002946842000F03EF8E0780A2190FBF1F241
:1025700001FB12010A2290FBF2F001EB0010C5B240
:102580002946862000F02EF8A0780A2190FBF1F26F
:1025900001FB12010A2290FBF2F001EB0010C5B220
:1025A0002946882000F01EF8E1798A2000F01AF808
:1025B0002088A0F5FA600A2190FBF1F201FB1201DC
:1025C0002088A0F5FA600A2290FBF2F001EB0010DF
:1025D000C5B229468C2000F005F880218E2000F03D
:1025E00001F870BD2DE9F04104460D4626462F4600
:1025F00000200F4908600F49C1F8B0010120FFF722
:1026000055FE01200A4908600220FFF74FFE3046C0
:1026100000F012F8384600F00FF800200449086076
:102620000349083908600220FFF740FEBDE8F08149
:10263000B8812142008021420021134A126822F40D
:102640007002114B1A601A46126842F440121A6066
:1026500000220E4B1A6000BF13E000220B4B1A60E1
:1026600000F001021AB101221B1D1A6003E00022D2
:10267000064B1B1D1A600122044B1A6040104A1CB5
:10268000D1B20829E9DB7047040C0140B081214236
:1026900000BF054A128802F04002002AF9D0C2B2F7
:1026A000014B1B1D1A807047003801401FB50121E6
:1026B0000846FEF785FF01210820FEF781FF4FF451
:1026C0004060ADF80C0048208DF80F0003208DF815
:1026D0000E0003A91248FEF7C5FA0A210120FEF7F1
:1026E000A1FA4FF48060019001208DF80A000020CB
:1026F0008DF808000C208DF8090001A8FEF748FAB3
:1027000028208DF8000003208DF801008DF80200CC
:1027100001208DF803006846FEF7C8FE1FBD0000CB
:10272000000C01404FF4A060FEF7F8FE4FF4E130DA
:1027300000F04AFBFFF772FDFFF7CEFAFFF7DCFD72
:10274000FDF7BAFFFEF716FD0020FEF789FDFFF743
:10275000DFFCFEF77BFDFEF78FFEFEF7E9FEC820EB
:10276000FFF77EFDFFF7A2FFFFF7E6FD61E2FEF750
:102770003DFEFE490870FE48007820B9FD4800780B
:10278000097888427ED0FFF7E1FDF84800780628F6
:102790003AD2DFE800F039033AADFEFDF6480079A1
:1027A0000A2190FBF1F0F5490870F34800790A21FD
:1027B00090FBF1F201FB1200F0494870EE484079BD
:1027C0000A2190FBF1F0ED498870EB4840790A212D
:1027D00090FBF1F201FB1200E849C87045F233505A
:1027E000FFF7A4FCFFF7B0FC0021E448FEF7CAFCA9
:1027F0000221E348FEF7CAFAC0F10100C4B2224642
:102800000221DF48FEF7CFFA89E1DE48007820B3E5
:10281000D94880780A2190FBF1F0D8490870D64851
:1028200080780A2190FBF1F201FB1200D349487035
:10283000D148C0780A2190FBF1F0D0498870CE4889
:10284000C0780A2190FBF1F201FB1200CB49C8705D
:102850000221CB48FEF7A5FA2FE0C74800884FF4C5
:102860007A7190FBF1F0C5490870C34800884FF4B5
:102870007A7190FBF1F201FB1200642190FBF1F000
:10288000BE4900E05EE14870BB480088642190FBCF
:10289000F1F201FB12000A2190FBF1F0B7498870B8
:1028A000B54800880A2190FBF1F201FB1200B34900
:1028B000C8700221B248FEF772FA4FF03310FFF7EA
:1028C00035FCFFF741FC0021AC48FEF75BFCAE484D
:1028D0000078401CAC49087008460078022806D1F0
:1028E00000200870A7480078C043A649087016E188
:1028F0000221A348FEF753FAA449A548FEF758FA67
:102900000021A348006800F055FF05D23320FFF7EF
:102910000DFCFFF719FC04E09E48FFF707FCFFF7EA
:1029200013FC9B48006800F0F9FE21F000410646C8
:102930000022994B00F00AFD044600F0C7FC9749BD
:102940000880084600884FF47A7190FBF1F08B49BB
:102950000870924800884FF47A7190FBF1F201FB05
:102960001200642190FBF1F0844948708B48008884
:10297000642190FBF1F201FB12000A2190FBF1F0BF
:102980007E498870854800880A2190FBF1F201E0B9
:1029900056E008E001FB12007849C8700121774831
:1029A000FEF7F0FBBBE002217548FEF7F8F9774926
:1029B0007748FEF7FDF94FF44C10FFF7B7FBFFF730
:1029C000C3FB7248006800F0A9FE21F000410646F2
:1029D0000022714B00F0BAFC044600F077FC6F490E
:1029E0000880084600884FF47A7190FBF1F0634943
:1029F00008706A4800884FF47A7190FBF1F201FB8D
:102A00001200642190FBF1F05C4948706348008833
:102A1000642190FBF1F201FB12000A2190FBF1F01E
:102A2000564988705D4800880A2190FBF1F201FB4D
:102A300012005249C87001215048FEF7A3FB6EE016
:102A400057480078E0B902214D48FEF7AAF94FF443
:102A50004C50FFF76BFBFFF777FB002051490880D4
:102A60004649087048708870C87000214348FEF7D6
:102A700089FB01204A490870022000F0EFF84DE080
:102A800047480078012842D146480088401C454903
:102A90000880084600883C2814DA0020374908706E
:102AA0004870404800880A2190FBF1F03349887053
:102AB0003C4800880A2190FBF1F201FB12002F49EB
:102AC000C8701FE0374800883C2190FBF1F201FB01
:102AD000120032490880084600880A2190FBF1F074
:102AE000264988702D4800880A2190FBF1F201FBED
:102AF00012002249C8702B4800883C2190FBF1F05D
:102B00001E49487000211D48FEF73CFB06E02448A2
:102B10000078022802D100202149087000BF00BFC0
:102B200000201349087020480088401C1E49088076
:102B300008460088B0F5967F04D1FEF7D1FB00204F
:102B4000194908800B480078052836D107480078D5
:102B5000052832D01248007803282ED000211348CF
:102B6000FFF766F80021114822E000000500002070
:102B700040070020040000202E000020000000205C
:102B8000000C014006000020070000201400002077
:102B900010000020004411000000594008000020EF
:102BA000500000200C0000200A000020000400401B
:102BB000FEF7B0FE00201F4908701F4800781F492B
:102BC00008701D480078022804D000201C490870B5
:102BD0001C4908701C48807808281AD11A48C07807
:102BE000092816D11848007998B91748407980B952
:102BF0001548807968B903200E49087000211348F0
:102C0000FFF716F800211148FEF784FE012000F0BE
:102C100025F80F48007860B10E4800680021FFF7E2
:102C2000DDFA0D48FFF76AFC0020094908700949E0
:102C300008609CE5500000200500002004000020F2
:102C400006000020070000202E00002000040040A5
:102C500018070020140700201A07002070B504464A
:102C6000012C06D11448154908601548154908601B
:102C700007E0022C05D11448104908601348114997
:102C80000860104A126811680E4A1268121D0D4D34
:102C90002A600A4A12681378084A1268521C074DC3
:102CA0002A600B4A32F8130000F016F80121094897
:102CB000FEF730FE70BD00008E00002048000020AE
:102CC000CC0000204C000020C0010020D0020020D9
:102CD00052000020000400402DE9FF5F04468946B1
:102CE000002C32D0204600F01EFB07463A460B4629
:102CF00000202F4900F092F9054600F0E7FA2D492F
:102D000008800846008840102B4908802948008820
:102D100000F009FBCDE90201484600F0FFFC074640
:102D20000022264B00F012FB05460022204B00F04B
:102D30000DFBCDE90001DDE9022300F06FF98246C9
:102D400000F0C4FA1E49088025E041F28830194994
:102D500008800020184908801648008800F0E3FA2F
:102D600005460E46484600F0D9FC07460022134BA4
:102D700000F0ECFA824600220D4B00F0E7FA2A46FA
:102D80003346CDE9000100F049F9CDE9020100F038
:102D90009DFA0B49088007480088401E09490880B1
:102DA0000548018807482C38FEF742FFBDE8FF9F21
:102DB00080842E4140000020420000200000E03FBF
:102DC000440000202C04004010B586B004460121C8
:102DD00044F20400FEF7F4FB4FF40070ADF8140069
:102DE00003208DF8160018208DF8170005A91C483F
:102DF000FDF738FF4FF48060ADF8140004208DF823
:102E0000170005A91648FDF72DFF25208DF80000B5
:102E100003208DF801008DF8020001208DF80300D9
:102E20006846FEF743FB01940020ADF80800ADF8BA
:102E30000A00ADF80C00ADF810000C20ADF80E0043
:102E400001A90848FFF7DEF8012240F225510548A4
:102E5000FFF7B3F801210348FFF779F806B010BD7A
:102E6000000801400038014021F00042A2F1605208
:102E7000B2F5801F01F0004328BFD2F17F6C0BD95F
:102E80005FEA001C43EAC20242EB507018BF704771
:102E900028BF20F001007047B2F5801FBCBF184664
:102EA00070474FEA410C1CF5001F02D2084600F0A3
:102EB000FBBC70B500F0F4FA00000089FFF7F6BF24
:102EC0004FF00040A0F580007047000010B591EA77
:102ED000030F48BF83F0004300F13E83841A71EB77
:102EE000030C05D2121943EB0C03001B61EB0C0120
:102EF000DFF824E14FEA1154A4EB135C1EEA430F00
:102F000018BF9EEA445F73D023EA0E03DCF1200E63
:102F100021EA045143F4801332D322FA0CFE10EB61
:102F20000E0023FA0CFE41EB0E01CCF1200E03FA49
:102F30000EFE10EB0E0051F10001B1F5801FCCF137
:102F4000200E32D201EB045112FA0EF2BDE810400D
:102F500058BF7047401C38BF5FEA420218BF704735
:102F6000002814BF20F0010041F100014FEA4103A5
:102F700013F5001F38BF7047A1F1C04100F0DEBA61
:102F8000012A43EB0302ACF1200CDCF11F0E32BF2F
:102F90004FF0000E23FA0CF310EB030041EB045149
:102FA000B4EB115FD0D0A1EB045101F580114908B9
:102FB0005FEA300001EB04510ED350F1000038BF3E
:102FC00012FA0EFE08D1BDE81040C9E7401C38BF18
:102FD0005FEA4202CAD1C3E7BDE810404FEA4103AD
:102FE00013F5001F38BF7047A1F1C04100F0A6BA29
:102FF0009EEA445F08D011EA5E0FBDE8104004BFAE
:1030000001F0004100207047BDE8104070B500F0AD
:1030100047FA00BF64FBBE3E0000E0FF2DE9C0415F
:1030200030B4DFF8A0C23CEA111418BF3CEA131414
:1030300000F0EC8081EA03051CEA111444EAD5741F
:1030400018BF1CEA131500F0C780A4EB05044FF06D
:10305000004545EAC12145EAC32341EA505143EA0C
:10306000525304F17F74994204F500344FEAC020B2
:103070004FEAC22208BF904200F09C804FEA1365DD
:103080000FF24016765D4FEA134506FB05F7C7F1D0
:10309000807706FB07F74FEAD737A7FB036876422E
:1030A000C8F58038A7FB06CE38BFA8F1010807FB9A
:1030B00008E64FF0000EA6FB028CE6FB03CEDCF127
:1030C000000CCEF1004E38BFAEF1010EA6FB0C583D
:1030D0004FF000074FF00005E6FB0E87A1FB08C686
:1030E000A0FB07CE16EB0E0645F10005E1FB0765D8
:1030F00015F1E04E7EBFA4F580345FEA46066D41CF
:1031000016F1800745F100054FEA17274FEA0666DA
:1031100047EA0567A6F1DE46B6F1805F4FEA15255E
:103120001FD9384624F0010C05EBC471BCF1FE6FC9
:1031300001EB0C1102D8F0BCBDE8008124425CBF59
:1031400001F5801E9EEAC47F02D4F0BCBDE8008178
:10315000244238D4F0BCA1F1C041BDE8004100F0E8
:10316000EDB94FEAD22242EA43524FEAD323A7FBFA
:1031700002864FEAD02040EA415007FB03661EEA70
:103180000E0F4FEAD12105FB026658BFA6EB005691
:10319000B6EB00564FEA520E4EEAC37E18EB0E0E07
:1031A00056EB530EBDD518EB02085E417F1C55F15E
:1031B0000005B6E74FF480154FF000074FF000060A
:1031C0004FF00008ADE7F0BC4FF0000001F1C04146
:1031D00001F00041BDE8008111EA0C1F0CEA131553
:1031E00000D00CE013EA0C1F00F025804FF0000027
:1031F000F0BC81EA030101F00041BDE80081F0BCB0
:10320000BDE8004181EA030100F098B9F0BCBDE8D7
:10321000004170B500F044F9097EFC3E00F007B8AB
:1032200081EA03014FF0000001F00041704781EA9C
:10323000030100F083B9F0BCBDE800414FF000008D
:1032400021497047FFFDFBF9F7F5F4F2F0EEEDEBE5
:10325000E9E8E6E4E3E1E0DEDDDBDAD8D7D5D4D394
:10326000D1D0CFCDCCCBCAC8C7C6C5C4C2C1C0BFE0
:10327000BEBDBCBBBAB9B8B7B6B5B4B3B2B1B0AFE6
:10328000AEADACABAAA9A8A8A7A6A5A4A3A3A2A1CA
:10329000A09F9F9E9D9C9C9B9A9999989797969585
:1032A00095949393929191908F8F8E8E8D8C8C8B21
:1032B0008B8A8989888887878685858484838382A9
:1032C000828181800000FF070000F87F4FEA1153E0
:1032D000A3F58063D3F11E03A8BFD3F1200C08DB54
:1032E0004FF0004242EAC12252EA505232FA03F051
:1032F000704709420BD4102BC4BF0020704703F560
:10330000787CBCF1FF3F05D04FF0FF3070474FF0A5
:103310000000704770B500F0C3F800BF49922480E8
:1033200000207047F0E7B0FA80F310FA03F10AD0FA
:10333000C3F11D0303F580634FEA41504FEA035286
:1033400002EBD12170474FF000007047DFF848C111
:1033500070B51CEA111E1EBF1CEA13159EEA0C0F65
:1033600095EA0C0F00F06F8081EA030423EA4C1306
:103370004EEAD47E21EA4C1141F4801143F48013CB
:10338000AE44A1FB024CA0FB0365AEF17F7E361973
:1033900055EB0C05A1FB034C4CF10003A0FB021CF8
:1033A00016EB0C06654153F10003094218BF46F0C5
:1033B000010613F4007F0BD14FEA03314FEA0530C9
:1033C000340341EA155140EA16506FF003020AE057
:1033D0004FEAC3214FEAC520F40241EA555140EAC1
:1033E00056506FF0020202EB2E4201EB025585EAC5
:1033F000CE710AD05FEA440C18BF24F0004450F1AB
:10340000000041F1000120EAD47040F2FE7C6245E8
:1034100000D270BDA84214BF4FF080444FF040442A
:10342000002E08BF0024BEF1806FA8BFA1F1C041EB
:10343000BDE8704080F282804FF0000001F1C04191
:1034400001F0004170479EEA0C0F0CEA131518BFFB
:1034500095EA0C0F06D04FF0000081EA030E0EF043
:10346000004170BD00F01CF88900013E00F007B873
:1034700000F009B84FEA430C5FEA5C5C08D081EACF
:10348000030100F05BB84FEA410C5FEA5C5CF6D1E7
:103490004FF00000014970470000FF070000F87F6F
:1034A0000EF1020E2EF0030E5EF8046B364205D4C8
:1034B000012A43EB030515F5001F12D8012841EB43
:1034C000010C1CF5001F0CD80ED14FEAD17C15F56C
:1034D000001F0CEB4C0C0CF1020C08BF4CEBD37C26
:1034E00004E04FF0080C01E04FEAD37C0CEB4C05F4
:1034F00026FA05F606F00706B6F1040C06D20EEB26
:10350000860CBDE870404CF0010C6047DFE80CF021
:10351000090B02024FF000414FF00000A1F500211D
:1035200070BD19461046012851EB010418BFD4F5AF
:10353000001484BF002001F0004170BD0808A0F510
:1035400000114FEA3101704710B591EA030F48BFEF
:1035500083F000433FF5C2AC841A71EB030C07D231
:1035600012198CF0004C43EB0C03001B61EB0C01B7
:10357000DFF8A4E14FEA1154A4EB135C1EEA430FF9
:1035800018BF9EEA445F00F0B08023EA6E03524207
:1035900021EA0451C3EB6E0338BF5B1EDCF1200E41
:1035A00025D322FA0CFE10EB0E0043FA0CFE41EB81
:1035B0000E01CCF1200E03FA0EFE10EB0E0051F1BD
:1035C0000001CCF1200E29D412FA0EF201EB0451C5
:1035D000BDE8104058BF7047401C1CBFB2F1004FFF
:1035E000704700280CBF491C20F00100704712EB07
:1035F000020E43EB030218BF4FF0010E4EEA4202E7
:10360000ACF1200CDCF11E0E54D943FA0CFE10EB89
:103610000E0051F1FF31CCF11E0ED5D50EF1010E89
:1036200012FA0EFE404141EB010101EB445C5FEAFE
:103630005C5C10D910EBDE7001EB045138BFBEF1B9
:10364000004FBDE8104018BF704700280CBF491C50
:1036500020F00100704730D24FEAD42C11F5001150
:1036600024F400641BD0B1FA81F20B3AA41AA41E10
:10367000D2F12003914030FA03F31943904001EB5B
:10368000CC71002C01EB0451BDE81040A8BF70477D
:1036900001F1C0414FF0000001F000417047B0FA65
:1036A00080F310FA03F100D110BDE41A173C48056D
:1036B000C90AE4E701EB045110BD491001EB0451C4
:1036C000BDE810404FEA300002E04FF000017047C3
:1036D0004A0008BF0042F8D0B2F5001F28BF70476B
:1036E00001F000414FF0000070479EEA445F07D0B0
:1036F00011EA5E0FBDE8104004BF002100207047B2
:10370000BDE8104070B5FFF7CBFE00BF40DFF63ECE
:1037100083F00041104670470000E0FF43004FEA8D
:10372000D30C4FEA3C0C43401FBF40070CF16051E3
:1037300013F0FE4F70471CF0006F03D100200CF017
:10374000004170470CF0004343EA507010B540EA66
:10375000CC0000F063F800BF000000924FEA0001C7
:10376000FFF7ECBE4FF000414FF00000A1F5002143
:103770007047401058BFC0F14040491058BFC1F1D8
:1037800040418142EFF3008070470000B0FA80F3BF
:1037900010FA03F2C3F19D030AD0D90501EB122000
:1037A000530638BF704700F1010008BF20F0010048
:1037B0007047000050EA010C00F113801CF5000F67
:1037C00058BFBCF5000F01D48842704707D710F5E9
:1037D000000F58BF11F5000F15D488427047894279
:1037E00070471CF5000F04D5BCF5000FF7D58142DA
:1037F00070474FF0807C1CEB400F38BF1CEB410F33
:1038000001D28142704710B500F008F892244900B7
:103810004FF000504FF08051FFF7ABBF0EF1020E9A
:103820002EF0030E5EF8044B244204D44FEA41020A
:10383000B2F17F4F11D84FEA4003B3F17F4F0CD85C
:103840000ED14FEAD07CB2F17F4F0CEB4C0C0CF157
:10385000020C08BF4CEBD17C04E04FF0080C01E0F7
:103860004FEAD17C0CEB4C0324FA03F404F0070478
:10387000B4F1040C06D20EEB840CBDE810404CF001
:10388000010C6047DFE80CF0070802024FF000402F
:10389000A0F5800010BD0846420018BFD2F180722A
:1038A00088BF00F0004010BDFF2141EAD050C005A4
:1038B0007047040000080000000000000002000142
:1038C0000000101F1D1F1E1F1E1F1F1E1F1E1F007A
:1038D000F038000800000020580700006C010008C4
:1038E000343A000858070020D00E0000D00100082C
:1038F00022000103100100016004A24A040B000A27
:103900002501020304060708090001500E060126DE
:10391000014A015D018801B801EE5C400F0B024BCA
:10392000029302BA0210037003DC0363400F160413
:103930009704260575052006E006B8071420070F32
:103940000F100F15110600131C16150F0F19171560
:1039500011100000181817151615151E12FFB54383
:10396000803F04520004928004032C004018611C24
:10397000011F540270407843404004141D0000159C
:1039800000051505060703100F0E0F0B0C0D0E0F8B
:1039900010110B160F1716151629300410110D18DB
:1039A000110A120513421115112330070D0D0015D0
:1039B0001011032005150E00182F25623211111168
:1039C0002221320004AC0F000F5A11D83905D5E876
:1039D0002A4014863E640310C0401452E01092E066
:1039E0002C61240219C04C0132146934C3003F0415
:1039F00021680219201CF9D091980112F061B801D8
:103A0000326C0B1920407C952405FF6805FF680582
:103A1000BC68AD68050C04178040000D070D1DF152
:103A2000062D21076D250700080002040608000086
:043A30000000000092
:0400000508000131BD
:00000001FF
